{
  "_format": "hh-sol-artifact-1",
  "contractName": "TodoList",
  "sourceName": "contracts/TodoList.sol",
  "abi": [
    {
      "anonymous": false,
      "inputs": [
        {
          "indexed": false,
          "internalType": "uint256",
          "name": "id",
          "type": "uint256"
        },
        {
          "indexed": false,
          "internalType": "uint256",
          "name": "date",
          "type": "uint256"
        },
        {
          "indexed": false,
          "internalType": "string",
          "name": "content",
          "type": "string"
        },
        {
          "indexed": false,
          "internalType": "bool",
          "name": "done",
          "type": "bool"
        }
      ],
      "name": "TaskCreated",
      "type": "event"
    },
    {
      "anonymous": false,
      "inputs": [
        {
          "indexed": false,
          "internalType": "uint256",
          "name": "id",
          "type": "uint256"
        }
      ],
      "name": "TaskDeleted",
      "type": "event"
    },
    {
      "anonymous": false,
      "inputs": [
        {
          "indexed": false,
          "internalType": "uint256",
          "name": "id",
          "type": "uint256"
        },
        {
          "indexed": false,
          "internalType": "bool",
          "name": "done",
          "type": "bool"
        },
        {
          "indexed": false,
          "internalType": "uint256",
          "name": "dateComplete",
          "type": "uint256"
        }
      ],
      "name": "TaskStatusToggled",
      "type": "event"
    },
    {
      "inputs": [
        {
          "internalType": "string",
          "name": "_content",
          "type": "string"
        }
      ],
      "name": "createTask",
      "outputs": [],
      "stateMutability": "nonpayable",
      "type": "function"
    },
    {
      "inputs": [
        {
          "internalType": "uint256",
          "name": "id",
          "type": "uint256"
        }
      ],
      "name": "deleteTask",
      "outputs": [],
      "stateMutability": "nonpayable",
      "type": "function"
    },
    {
      "inputs": [
        {
          "internalType": "uint256",
          "name": "id",
          "type": "uint256"
        }
      ],
      "name": "getTask",
      "outputs": [
        {
          "internalType": "uint256",
          "name": "",
          "type": "uint256"
        },
        {
          "internalType": "uint256",
          "name": "",
          "type": "uint256"
        },
        {
          "internalType": "string",
          "name": "",
          "type": "string"
        },
        {
          "internalType": "bool",
          "name": "",
          "type": "bool"
        },
        {
          "internalType": "uint256",
          "name": "",
          "type": "uint256"
        }
      ],
      "stateMutability": "view",
      "type": "function"
    },
    {
      "inputs": [
        {
          "internalType": "uint256",
          "name": "id",
          "type": "uint256"
        }
      ],
      "name": "getTaskFixtures",
      "outputs": [
        {
          "internalType": "uint256",
          "name": "",
          "type": "uint256"
        },
        {
          "internalType": "uint256",
          "name": "",
          "type": "uint256"
        },
        {
          "internalType": "string",
          "name": "",
          "type": "string"
        },
        {
          "internalType": "bool",
          "name": "",
          "type": "bool"
        }
      ],
      "stateMutability": "view",
      "type": "function"
    },
    {
      "inputs": [],
      "name": "getTaskIds",
      "outputs": [
        {
          "internalType": "uint256[]",
          "name": "",
          "type": "uint256[]"
        }
      ],
      "stateMutability": "view",
      "type": "function"
    },
    {
      "inputs": [
        {
          "internalType": "uint256",
          "name": "id",
          "type": "uint256"
        }
      ],
      "name": "toggleDone",
      "outputs": [],
      "stateMutability": "nonpayable",
      "type": "function"
    }
  ],
  "bytecode": "0x60806040526001805534801561001457600080fd5b50610fe7806100246000396000f3fe608060405234801561001057600080fd5b50600436106100625760003560e01c8063111002aa146100675780631d65e77e14610083578063560f3192146100b7578063bcd14805146100d3578063d81ef739146100f1578063f885f0d91461010d575b600080fd5b610081600480360381019061007c9190610894565b610140565b005b61009d60048036038101906100989190610913565b610264565b6040516100ae9594939291906109e9565b60405180910390f35b6100d160048036038101906100cc9190610913565b6103ca565b005b6100db61051b565b6040516100e89190610b01565b60405180910390f35b61010b60048036038101906101069190610913565b610573565b005b61012760048036038101906101229190610913565b61068c565b6040516101379493929190610b23565b60405180910390f35b60004290506040518060a00160405280600154815260200182815260200183815260200160001515815260200160008152506000806001548152602001908152602001600020600082015181600001556020820151816001015560408201518160020190816101af9190610d7b565b5060608201518160030160006101000a81548160ff02191690831515021790555060808201518160040155905050600260015490806001815401808255809150506001900390600052602060002001600090919091909150557f958b88abf2e68af5e9bc0888fd4c508aaa67194884617ab2b45471e4de2b6949600154828460006040516102409493929190610b23565b60405180910390a16001600081548092919061025b90610e7c565b91905055505050565b600080606060008085600080600083815260200190815260200160002060000154036102c5576040517f08c379a00000000000000000000000000000000000000000000000000000000081526004016102bc90610f10565b60405180910390fd5b86600080898152602001908152602001600020600101546000808a81526020019081526020016000206002016000808b815260200190815260200160002060030160009054906101000a900460ff166000808c81526020019081526020016000206004015482805461033690610b9e565b80601f016020809104026020016040519081016040528092919081815260200182805461036290610b9e565b80156103af5780601f10610384576101008083540402835291602001916103af565b820191906000526020600020905b81548152906001019060200180831161039257829003601f168201915b50505050509250955095509550955095505091939590929450565b8060008060008381526020019081526020016000206000015403610423576040517f08c379a000000000000000000000000000000000000000000000000000000000815260040161041a90610f10565b60405180910390fd5b600080838152602001908152602001600020600080820160009055600182016000905560028201600061045691906106dd565b6003820160006101000a81549060ff02191690556004820160009055505060005b6002805490508110156104df57826002828154811061049957610498610f30565b5b9060005260206000200154036104cc57600281815481106104bd576104bc610f30565b5b90600052602060002001600090555b80806104d790610e7c565b915050610477565b507fd078b251d950cc55c44340be1db732337ef4939a76e1367ee271ad2cb19c46af8260405161050f9190610f5f565b60405180910390a15050565b6060600280548060200260200160405190810160405280929190818152602001828054801561056957602002820191906000526020600020905b815481526020019060010190808311610555575b5050505050905090565b80600080600083815260200190815260200160002060000154036105cc576040517f08c379a00000000000000000000000000000000000000000000000000000000081526004016105c390610f10565b60405180910390fd5b600080600084815260200190815260200160002090508060030160009054906101000a900460ff16158160030160006101000a81548160ff0219169083151502179055508060030160009054906101000a900460ff1661062d57600061062f565b425b81600401819055507fcb1ceae718a6ae11d5daf00e292e318717e0acf2d326ed670df0e5ff67ba5000838260030160009054906101000a900460ff16836004015460405161067f93929190610f7a565b60405180910390a1505050565b60008060606000844260006040518060400160405280600981526020017f54657374205461736b00000000000000000000000000000000000000000000008152509093509350935093509193509193565b5080546106e990610b9e565b6000825580601f106106fb575061071a565b601f016020900490600052602060002090810190610719919061071d565b5b50565b5b8082111561073657600081600090555060010161071e565b5090565b6000604051905090565b600080fd5b600080fd5b600080fd5b600080fd5b6000601f19601f8301169050919050565b7f4e487b7100000000000000000000000000000000000000000000000000000000600052604160045260246000fd5b6107a182610758565b810181811067ffffffffffffffff821117156107c0576107bf610769565b5b80604052505050565b60006107d361073a565b90506107df8282610798565b919050565b600067ffffffffffffffff8211156107ff576107fe610769565b5b61080882610758565b9050602081019050919050565b82818337600083830152505050565b6000610837610832846107e4565b6107c9565b90508281526020810184848401111561085357610852610753565b5b61085e848285610815565b509392505050565b600082601f83011261087b5761087a61074e565b5b813561088b848260208601610824565b91505092915050565b6000602082840312156108aa576108a9610744565b5b600082013567ffffffffffffffff8111156108c8576108c7610749565b5b6108d484828501610866565b91505092915050565b6000819050919050565b6108f0816108dd565b81146108fb57600080fd5b50565b60008135905061090d816108e7565b92915050565b60006020828403121561092957610928610744565b5b6000610937848285016108fe565b91505092915050565b610949816108dd565b82525050565b600081519050919050565b600082825260208201905092915050565b60005b8381101561098957808201518184015260208101905061096e565b60008484015250505050565b60006109a08261094f565b6109aa818561095a565b93506109ba81856020860161096b565b6109c381610758565b840191505092915050565b60008115159050919050565b6109e3816109ce565b82525050565b600060a0820190506109fe6000830188610940565b610a0b6020830187610940565b8181036040830152610a1d8186610995565b9050610a2c60608301856109da565b610a396080830184610940565b9695505050505050565b600081519050919050565b600082825260208201905092915050565b6000819050602082019050919050565b610a78816108dd565b82525050565b6000610a8a8383610a6f565b60208301905092915050565b6000602082019050919050565b6000610aae82610a43565b610ab88185610a4e565b9350610ac383610a5f565b8060005b83811015610af4578151610adb8882610a7e565b9750610ae683610a96565b925050600181019050610ac7565b5085935050505092915050565b60006020820190508181036000830152610b1b8184610aa3565b905092915050565b6000608082019050610b386000830187610940565b610b456020830186610940565b8181036040830152610b578185610995565b9050610b6660608301846109da565b95945050505050565b7f4e487b7100000000000000000000000000000000000000000000000000000000600052602260045260246000fd5b60006002820490506001821680610bb657607f821691505b602082108103610bc957610bc8610b6f565b5b50919050565b60008190508160005260206000209050919050565b60006020601f8301049050919050565b600082821b905092915050565b600060088302610c317fffffffffffffffffffffffffffffffffffffffffffffffffffffffffffffffff82610bf4565b610c3b8683610bf4565b95508019841693508086168417925050509392505050565b6000819050919050565b6000610c78610c73610c6e846108dd565b610c53565b6108dd565b9050919050565b6000819050919050565b610c9283610c5d565b610ca6610c9e82610c7f565b848454610c01565b825550505050565b600090565b610cbb610cae565b610cc6818484610c89565b505050565b5b81811015610cea57610cdf600082610cb3565b600181019050610ccc565b5050565b601f821115610d2f57610d0081610bcf565b610d0984610be4565b81016020851015610d18578190505b610d2c610d2485610be4565b830182610ccb565b50505b505050565b600082821c905092915050565b6000610d5260001984600802610d34565b1980831691505092915050565b6000610d6b8383610d41565b9150826002028217905092915050565b610d848261094f565b67ffffffffffffffff811115610d9d57610d9c610769565b5b610da78254610b9e565b610db2828285610cee565b600060209050601f831160018114610de55760008415610dd3578287015190505b610ddd8582610d5f565b865550610e45565b601f198416610df386610bcf565b60005b82811015610e1b57848901518255600182019150602085019450602081019050610df6565b86831015610e385784890151610e34601f891682610d41565b8355505b6001600288020188555050505b505050505050565b7f4e487b7100000000000000000000000000000000000000000000000000000000600052601160045260246000fd5b6000610e87826108dd565b91507fffffffffffffffffffffffffffffffffffffffffffffffffffffffffffffffff8203610eb957610eb8610e4d565b5b600182019050919050565b7f5265766572743a207461736b4964206e6f7420666f756e640000000000000000600082015250565b6000610efa60188361095a565b9150610f0582610ec4565b602082019050919050565b60006020820190508181036000830152610f2981610eed565b9050919050565b7f4e487b7100000000000000000000000000000000000000000000000000000000600052603260045260246000fd5b6000602082019050610f746000830184610940565b92915050565b6000606082019050610f8f6000830186610940565b610f9c60208301856109da565b610fa96040830184610940565b94935050505056fea2646970667358221220eea926d60b6aea87e337152fe1470fecbf48972a6cd901aa5615ec56f5be837864736f6c63430008130033",
  "linkReferences": {},
  "deployedLinkReferences": {}
}